{
  "_format": "hh-sol-artifact-1",
  "contractName": "Stake",
  "sourceName": "contracts/Stake.sol",
  "abi": [
    {
      "inputs": [],
      "stateMutability": "nonpayable",
      "type": "constructor"
    },
    {
      "inputs": [],
      "name": "deposit",
      "outputs": [],
      "stateMutability": "payable",
      "type": "function"
    },
    {
      "inputs": [],
      "name": "lockingPeriod",
      "outputs": [
        {
          "internalType": "uint256",
          "name": "",
          "type": "uint256"
        }
      ],
      "stateMutability": "view",
      "type": "function"
    },
    {
      "inputs": [
        {
          "internalType": "address",
          "name": "",
          "type": "address"
        }
      ],
      "name": "userDeposits",
      "outputs": [
        {
          "internalType": "uint256",
          "name": "",
          "type": "uint256"
        }
      ],
      "stateMutability": "view",
      "type": "function"
    },
    {
      "inputs": [],
      "name": "withdraw",
      "outputs": [],
      "stateMutability": "nonpayable",
      "type": "function"
    },
    {
      "inputs": [
        {
          "internalType": "address",
          "name": "",
          "type": "address"
        }
      ],
      "name": "withdrawalTimestamps",
      "outputs": [
        {
          "internalType": "uint256",
          "name": "",
          "type": "uint256"
        }
      ],
      "stateMutability": "view",
      "type": "function"
    }
  ],
  "bytecode": "0x60806040526201518060025534801561001757600080fd5b5061003f6040518060600160405280602281526020016109e46022913961004460201b60201c565b610225565b6100e08160405160240161005891906101d4565b6040516020818303038152906040527f41304fac000000000000000000000000000000000000000000000000000000007bffffffffffffffffffffffffffffffffffffffffffffffffffffffff19166020820180517bffffffffffffffffffffffffffffffffffffffffffffffffffffffff83818316178352505050506100e360201b60201c565b50565b610104816100ff61010760201b6104121761012860201b60201c565b60201c565b50565b60006a636f6e736f6c652e6c6f679050600080835160208501845afa505050565b61013a60201b61043317819050919050565b6101426101f6565b565b600081519050919050565b600082825260208201905092915050565b60005b8381101561017e578082015181840152602081019050610163565b60008484015250505050565b6000601f19601f8301169050919050565b60006101a682610144565b6101b0818561014f565b93506101c0818560208601610160565b6101c98161018a565b840191505092915050565b600060208201905081810360008301526101ee818461019b565b905092915050565b7f4e487b7100000000000000000000000000000000000000000000000000000000600052605160045260246000fd5b6107b0806102346000396000f3fe60806040526004361061004a5760003560e01c80630ba36dcd1461004f578063141ebd831461008c5780633ccfd60b146100c9578063550066d5146100e0578063d0e30db01461010b575b600080fd5b34801561005b57600080fd5b50610076600480360381019061007191906104a0565b610115565b60405161008391906104e6565b60405180910390f35b34801561009857600080fd5b506100b360048036038101906100ae91906104a0565b61012d565b6040516100c091906104e6565b60405180910390f35b3480156100d557600080fd5b506100de610145565b005b3480156100ec57600080fd5b506100f561036a565b60405161010291906104e6565b60405180910390f35b610113610370565b005b60006020528060005260406000206000915090505481565b60016020528060005260406000206000915090505481565b6000600160003373ffffffffffffffffffffffffffffffffffffffff1673ffffffffffffffffffffffffffffffffffffffff16815260200190815260200160002054146101c7576040517f08c379a00000000000000000000000000000000000000000000000000000000081526004016101be9061055e565b60405180910390fd5b600254600160003373ffffffffffffffffffffffffffffffffffffffff1673ffffffffffffffffffffffffffffffffffffffff1681526020019081526020016000205461021491906105ad565b421015610256576040517f08c379a000000000000000000000000000000000000000000000000000000000815260040161024d9061062d565b60405180910390fd5b60008060003373ffffffffffffffffffffffffffffffffffffffff1673ffffffffffffffffffffffffffffffffffffffff168152602001908152602001600020549050600081116102dc576040517f08c379a00000000000000000000000000000000000000000000000000000000081526004016102d390610699565b60405180910390fd5b42600160003373ffffffffffffffffffffffffffffffffffffffff1673ffffffffffffffffffffffffffffffffffffffff168152602001908152602001600020819055503373ffffffffffffffffffffffffffffffffffffffff166108fc829081150290604051600060405180830381858888f19350505050158015610366573d6000803e3d6000fd5b5050565b60025481565b680332ca1b67940c000034146103bb576040517f08c379a00000000000000000000000000000000000000000000000000000000081526004016103b29061072b565b60405180910390fd5b346000803373ffffffffffffffffffffffffffffffffffffffff1673ffffffffffffffffffffffffffffffffffffffff168152602001908152602001600020600082825461040991906105ad565b92505081905550565b60006a636f6e736f6c652e6c6f679050600080835160208501845afa505050565b61043b61074b565b565b600080fd5b600073ffffffffffffffffffffffffffffffffffffffff82169050919050565b600061046d82610442565b9050919050565b61047d81610462565b811461048857600080fd5b50565b60008135905061049a81610474565b92915050565b6000602082840312156104b6576104b561043d565b5b60006104c48482850161048b565b91505092915050565b6000819050919050565b6104e0816104cd565b82525050565b60006020820190506104fb60008301846104d7565b92915050565b600082825260208201905092915050565b7f596f75206861766520616c72656164792077697468647261776e000000000000600082015250565b6000610548601a83610501565b915061055382610512565b602082019050919050565b600060208201905081810360008301526105778161053b565b9050919050565b7f4e487b7100000000000000000000000000000000000000000000000000000000600052601160045260246000fd5b60006105b8826104cd565b91506105c3836104cd565b92508282019050808211156105db576105da61057e565b5b92915050565b7f4c6f636b696e6720706572696f64206e6f74206f766572207965740000000000600082015250565b6000610617601b83610501565b9150610622826105e1565b602082019050919050565b600060208201905081810360008301526106468161060a565b9050919050565b7f4e6f2062616c616e636520746f20776974686472617700000000000000000000600082015250565b6000610683601683610501565b915061068e8261064d565b602082019050919050565b600060208201905081810360008301526106b281610676565b9050919050565b7f596f75206d757374206465706f7369742065786163746c79203630206574686560008201527f7273000000000000000000000000000000000000000000000000000000000000602082015250565b6000610715602283610501565b9150610720826106b9565b604082019050919050565b6000602082019050818103600083015261074481610708565b9050919050565b7f4e487b7100000000000000000000000000000000000000000000000000000000600052605160045260246000fdfea2646970667358221220a4f114e0ca433d9c6ff72800be7c69f773b48c3601335470951d8189588e106764736f6c634300081300335374616b696e6720736d61727420636f6e747261637420696d706c656d656e746564",
  "linkReferences": {},
  "deployedLinkReferences": {}
}